{
  "_format": "hh-sol-artifact-1",
  "contractName": "MartianMunchies",
  "sourceName": "contracts/MartianMunchies.sol",
  "abi": [
    {
      "inputs": [],
      "stateMutability": "nonpayable",
      "type": "constructor"
    },
    {
      "anonymous": false,
      "inputs": [
        {
          "indexed": true,
          "internalType": "address",
          "name": "account",
          "type": "address"
        },
        {
          "indexed": true,
          "internalType": "address",
          "name": "operator",
          "type": "address"
        },
        {
          "indexed": false,
          "internalType": "bool",
          "name": "approved",
          "type": "bool"
        }
      ],
      "name": "ApprovalForAll",
      "type": "event"
    },
    {
      "anonymous": false,
      "inputs": [
        {
          "indexed": false,
          "internalType": "uint256",
          "name": "orderId",
          "type": "uint256"
        },
        {
          "indexed": false,
          "internalType": "uint256",
          "name": "amount",
          "type": "uint256"
        }
      ],
      "name": "Order",
      "type": "event"
    },
    {
      "anonymous": false,
      "inputs": [
        {
          "indexed": true,
          "internalType": "address",
          "name": "previousOwner",
          "type": "address"
        },
        {
          "indexed": true,
          "internalType": "address",
          "name": "newOwner",
          "type": "address"
        }
      ],
      "name": "OwnershipTransferred",
      "type": "event"
    },
    {
      "anonymous": false,
      "inputs": [
        {
          "indexed": true,
          "internalType": "address",
          "name": "operator",
          "type": "address"
        },
        {
          "indexed": true,
          "internalType": "address",
          "name": "from",
          "type": "address"
        },
        {
          "indexed": true,
          "internalType": "address",
          "name": "to",
          "type": "address"
        },
        {
          "indexed": false,
          "internalType": "uint256[]",
          "name": "ids",
          "type": "uint256[]"
        },
        {
          "indexed": false,
          "internalType": "uint256[]",
          "name": "values",
          "type": "uint256[]"
        }
      ],
      "name": "TransferBatch",
      "type": "event"
    },
    {
      "anonymous": false,
      "inputs": [
        {
          "indexed": true,
          "internalType": "address",
          "name": "operator",
          "type": "address"
        },
        {
          "indexed": true,
          "internalType": "address",
          "name": "from",
          "type": "address"
        },
        {
          "indexed": true,
          "internalType": "address",
          "name": "to",
          "type": "address"
        },
        {
          "indexed": false,
          "internalType": "uint256",
          "name": "id",
          "type": "uint256"
        },
        {
          "indexed": false,
          "internalType": "uint256",
          "name": "value",
          "type": "uint256"
        }
      ],
      "name": "TransferSingle",
      "type": "event"
    },
    {
      "anonymous": false,
      "inputs": [
        {
          "indexed": false,
          "internalType": "string",
          "name": "value",
          "type": "string"
        },
        {
          "indexed": true,
          "internalType": "uint256",
          "name": "id",
          "type": "uint256"
        }
      ],
      "name": "URI",
      "type": "event"
    },
    {
      "inputs": [],
      "name": "MUNCHIE_TOKEN",
      "outputs": [
        {
          "internalType": "uint256",
          "name": "",
          "type": "uint256"
        }
      ],
      "stateMutability": "view",
      "type": "function"
    },
    {
      "inputs": [
        {
          "internalType": "address",
          "name": "account",
          "type": "address"
        },
        {
          "internalType": "uint256",
          "name": "amount",
          "type": "uint256"
        }
      ],
      "name": "awardTokens",
      "outputs": [],
      "stateMutability": "nonpayable",
      "type": "function"
    },
    {
      "inputs": [
        {
          "internalType": "address",
          "name": "account",
          "type": "address"
        },
        {
          "internalType": "uint256",
          "name": "id",
          "type": "uint256"
        }
      ],
      "name": "balanceOf",
      "outputs": [
        {
          "internalType": "uint256",
          "name": "",
          "type": "uint256"
        }
      ],
      "stateMutability": "view",
      "type": "function"
    },
    {
      "inputs": [
        {
          "internalType": "address[]",
          "name": "accounts",
          "type": "address[]"
        },
        {
          "internalType": "uint256[]",
          "name": "ids",
          "type": "uint256[]"
        }
      ],
      "name": "balanceOfBatch",
      "outputs": [
        {
          "internalType": "uint256[]",
          "name": "",
          "type": "uint256[]"
        }
      ],
      "stateMutability": "view",
      "type": "function"
    },
    {
      "inputs": [
        {
          "internalType": "address",
          "name": "account",
          "type": "address"
        },
        {
          "internalType": "address",
          "name": "operator",
          "type": "address"
        }
      ],
      "name": "isApprovedForAll",
      "outputs": [
        {
          "internalType": "bool",
          "name": "",
          "type": "bool"
        }
      ],
      "stateMutability": "view",
      "type": "function"
    },
    {
      "inputs": [],
      "name": "owner",
      "outputs": [
        {
          "internalType": "address",
          "name": "",
          "type": "address"
        }
      ],
      "stateMutability": "view",
      "type": "function"
    },
    {
      "inputs": [
        {
          "internalType": "uint256",
          "name": "orderId",
          "type": "uint256"
        }
      ],
      "name": "purchase",
      "outputs": [],
      "stateMutability": "payable",
      "type": "function"
    },
    {
      "inputs": [
        {
          "internalType": "address",
          "name": "account",
          "type": "address"
        },
        {
          "internalType": "uint256",
          "name": "amount",
          "type": "uint256"
        }
      ],
      "name": "removeTokens",
      "outputs": [],
      "stateMutability": "nonpayable",
      "type": "function"
    },
    {
      "inputs": [],
      "name": "renounceOwnership",
      "outputs": [],
      "stateMutability": "nonpayable",
      "type": "function"
    },
    {
      "inputs": [
        {
          "internalType": "address",
          "name": "from",
          "type": "address"
        },
        {
          "internalType": "address",
          "name": "to",
          "type": "address"
        },
        {
          "internalType": "uint256[]",
          "name": "ids",
          "type": "uint256[]"
        },
        {
          "internalType": "uint256[]",
          "name": "amounts",
          "type": "uint256[]"
        },
        {
          "internalType": "bytes",
          "name": "data",
          "type": "bytes"
        }
      ],
      "name": "safeBatchTransferFrom",
      "outputs": [],
      "stateMutability": "nonpayable",
      "type": "function"
    },
    {
      "inputs": [
        {
          "internalType": "address",
          "name": "from",
          "type": "address"
        },
        {
          "internalType": "address",
          "name": "to",
          "type": "address"
        },
        {
          "internalType": "uint256",
          "name": "id",
          "type": "uint256"
        },
        {
          "internalType": "uint256",
          "name": "amount",
          "type": "uint256"
        },
        {
          "internalType": "bytes",
          "name": "data",
          "type": "bytes"
        }
      ],
      "name": "safeTransferFrom",
      "outputs": [],
      "stateMutability": "nonpayable",
      "type": "function"
    },
    {
      "inputs": [
        {
          "internalType": "address",
          "name": "operator",
          "type": "address"
        },
        {
          "internalType": "bool",
          "name": "approved",
          "type": "bool"
        }
      ],
      "name": "setApprovalForAll",
      "outputs": [],
      "stateMutability": "nonpayable",
      "type": "function"
    },
    {
      "inputs": [
        {
          "internalType": "bytes4",
          "name": "interfaceId",
          "type": "bytes4"
        }
      ],
      "name": "supportsInterface",
      "outputs": [
        {
          "internalType": "bool",
          "name": "",
          "type": "bool"
        }
      ],
      "stateMutability": "view",
      "type": "function"
    },
    {
      "inputs": [
        {
          "internalType": "address",
          "name": "newOwner",
          "type": "address"
        }
      ],
      "name": "transferOwnership",
      "outputs": [],
      "stateMutability": "nonpayable",
      "type": "function"
    },
    {
      "inputs": [
        {
          "internalType": "uint256",
          "name": "",
          "type": "uint256"
        }
      ],
      "name": "uri",
      "outputs": [
        {
          "internalType": "string",
          "name": "",
          "type": "string"
        }
      ],
      "stateMutability": "view",
      "type": "function"
    },
    {
      "inputs": [],
      "name": "withdraw",
      "outputs": [],
      "stateMutability": "nonpayable",
      "type": "function"
    }
  ],
  "bytecode": "0x60806040523480156200001157600080fd5b506040518060400160405280600581526020017f68656c6c6f00000000000000000000000000000000000000000000000000000081525062000059816200008060201b60201c565b506200007a6200006e6200009560201b60201c565b6200009d60201b60201c565b620004c4565b8060029081620000919190620003dd565b5050565b600033905090565b6000600360009054906101000a900473ffffffffffffffffffffffffffffffffffffffff16905081600360006101000a81548173ffffffffffffffffffffffffffffffffffffffff021916908373ffffffffffffffffffffffffffffffffffffffff1602179055508173ffffffffffffffffffffffffffffffffffffffff168173ffffffffffffffffffffffffffffffffffffffff167f8be0079c531659141344cd1fd0a4f28419497f9722a3daafe3b4186f6b6457e060405160405180910390a35050565b600081519050919050565b7f4e487b7100000000000000000000000000000000000000000000000000000000600052604160045260246000fd5b7f4e487b7100000000000000000000000000000000000000000000000000000000600052602260045260246000fd5b60006002820490506001821680620001e557607f821691505b602082108103620001fb57620001fa6200019d565b5b50919050565b60008190508160005260206000209050919050565b60006020601f8301049050919050565b600082821b905092915050565b600060088302620002657fffffffffffffffffffffffffffffffffffffffffffffffffffffffffffffffff8262000226565b62000271868362000226565b95508019841693508086168417925050509392505050565b6000819050919050565b6000819050919050565b6000620002be620002b8620002b28462000289565b62000293565b62000289565b9050919050565b6000819050919050565b620002da836200029d565b620002f2620002e982620002c5565b84845462000233565b825550505050565b600090565b62000309620002fa565b62000316818484620002cf565b505050565b5b818110156200033e5762000332600082620002ff565b6001810190506200031c565b5050565b601f8211156200038d57620003578162000201565b620003628462000216565b8101602085101562000372578190505b6200038a620003818562000216565b8301826200031b565b50505b505050565b600082821c905092915050565b6000620003b26000198460080262000392565b1980831691505092915050565b6000620003cd83836200039f565b9150826002028217905092915050565b620003e88262000163565b67ffffffffffffffff8111156200040457620004036200016e565b5b620004108254620001cc565b6200041d82828562000342565b600060209050601f83116001811462000455576000841562000440578287015190505b6200044c8582620003bf565b865550620004bc565b601f198416620004658662000201565b60005b828110156200048f5784890151825560018201915060208501945060208101905062000468565b86831015620004af5784890151620004ab601f8916826200039f565b8355505b6001600288020188555050505b505050505050565b612d5b80620004d46000396000f3fe6080604052600436106100f25760003560e01c8063715018a61161008a578063e985e9c511610059578063e985e9c514610313578063efef39a114610350578063f242432a1461036c578063f2fde38b14610395576100f2565b8063715018a61461027d5780638da5cb5b1461029457806398759ba3146102bf578063a22cb465146102ea576100f2565b80632b581990116100c65780632b581990146101d75780632eb2c2d6146102005780633ccfd60b146102295780634e1273f414610240576100f2565b8062fdd58e146100f757806301ffc9a7146101345780630e89341c146101715780631e10eeaf146101ae575b600080fd5b34801561010357600080fd5b5061011e60048036038101906101199190611a3c565b6103be565b60405161012b9190611a8b565b60405180910390f35b34801561014057600080fd5b5061015b60048036038101906101569190611afe565b610486565b6040516101689190611b46565b60405180910390f35b34801561017d57600080fd5b5061019860048036038101906101939190611b61565b610568565b6040516101a59190611c1e565b60405180910390f35b3480156101ba57600080fd5b506101d560048036038101906101d09190611a3c565b6105fc565b005b3480156101e357600080fd5b506101fe60048036038101906101f99190611a3c565b610624565b005b34801561020c57600080fd5b5061022760048036038101906102229190611e3d565b61064c565b005b34801561023557600080fd5b5061023e6106ed565b005b34801561024c57600080fd5b5061026760048036038101906102629190611fcf565b610745565b6040516102749190612105565b60405180910390f35b34801561028957600080fd5b5061029261085e565b005b3480156102a057600080fd5b506102a9610872565b6040516102b69190612136565b60405180910390f35b3480156102cb57600080fd5b506102d461089c565b6040516102e19190611a8b565b60405180910390f35b3480156102f657600080fd5b50610311600480360381019061030c919061217d565b6108a1565b005b34801561031f57600080fd5b5061033a600480360381019061033591906121bd565b6108b7565b6040516103479190611b46565b60405180910390f35b61036a60048036038101906103659190611b61565b61094b565b005b34801561037857600080fd5b50610393600480360381019061038e91906121fd565b610987565b005b3480156103a157600080fd5b506103bc60048036038101906103b79190612294565b610a28565b005b60008073ffffffffffffffffffffffffffffffffffffffff168373ffffffffffffffffffffffffffffffffffffffff160361042e576040517f08c379a000000000000000000000000000000000000000000000000000000000815260040161042590612333565b60405180910390fd5b60008083815260200190815260200160002060008473ffffffffffffffffffffffffffffffffffffffff1673ffffffffffffffffffffffffffffffffffffffff16815260200190815260200160002054905092915050565b60007fd9b67a26000000000000000000000000000000000000000000000000000000007bffffffffffffffffffffffffffffffffffffffffffffffffffffffff1916827bffffffffffffffffffffffffffffffffffffffffffffffffffffffff1916148061055157507f0e89341c000000000000000000000000000000000000000000000000000000007bffffffffffffffffffffffffffffffffffffffffffffffffffffffff1916827bffffffffffffffffffffffffffffffffffffffffffffffffffffffff1916145b80610561575061056082610aab565b5b9050919050565b60606002805461057790612382565b80601f01602080910402602001604051908101604052809291908181526020018280546105a390612382565b80156105f05780601f106105c5576101008083540402835291602001916105f0565b820191906000526020600020905b8154815290600101906020018083116105d357829003601f168201915b50505050509050919050565b610604610b15565b6106208260008360405180602001604052806000815250610b93565b5050565b61062c610b15565b6106488260008360405180602001604052806000815250610b93565b5050565b610654610d43565b73ffffffffffffffffffffffffffffffffffffffff168573ffffffffffffffffffffffffffffffffffffffff16148061069a575061069985610694610d43565b6108b7565b5b6106d9576040517f08c379a00000000000000000000000000000000000000000000000000000000081526004016106d090612425565b60405180910390fd5b6106e68585858585610d4b565b5050505050565b6106f5610b15565b6106fd610872565b73ffffffffffffffffffffffffffffffffffffffff166108fc479081150290604051600060405180830381858888f19350505050158015610742573d6000803e3d6000fd5b50565b6060815183511461078b576040517f08c379a0000000000000000000000000000000000000000000000000000000008152600401610782906124b7565b60405180910390fd5b6000835167ffffffffffffffff8111156107a8576107a7611c45565b5b6040519080825280602002602001820160405280156107d65781602001602082028036833780820191505090505b50905060005b8451811015610853576108238582815181106107fb576107fa6124d7565b5b6020026020010151858381518110610816576108156124d7565b5b60200260200101516103be565b828281518110610836576108356124d7565b5b6020026020010181815250508061084c90612535565b90506107dc565b508091505092915050565b610866610b15565b610870600061106c565b565b6000600360009054906101000a900473ffffffffffffffffffffffffffffffffffffffff16905090565b600081565b6108b36108ac610d43565b8383611132565b5050565b6000600160008473ffffffffffffffffffffffffffffffffffffffff1673ffffffffffffffffffffffffffffffffffffffff16815260200190815260200160002060008373ffffffffffffffffffffffffffffffffffffffff1673ffffffffffffffffffffffffffffffffffffffff16815260200190815260200160002060009054906101000a900460ff16905092915050565b7fbe70e33d80380c63f65df11f18bcad572571d76e3404798a9050dfb112101bf4813460405161097c92919061257d565b60405180910390a150565b61098f610d43565b73ffffffffffffffffffffffffffffffffffffffff168573ffffffffffffffffffffffffffffffffffffffff1614806109d557506109d4856109cf610d43565b6108b7565b5b610a14576040517f08c379a0000000000000000000000000000000000000000000000000000000008152600401610a0b90612425565b60405180910390fd5b610a21858585858561129e565b5050505050565b610a30610b15565b600073ffffffffffffffffffffffffffffffffffffffff168173ffffffffffffffffffffffffffffffffffffffff1603610a9f576040517f08c379a0000000000000000000000000000000000000000000000000000000008152600401610a9690612618565b60405180910390fd5b610aa88161106c565b50565b60007f01ffc9a7000000000000000000000000000000000000000000000000000000007bffffffffffffffffffffffffffffffffffffffffffffffffffffffff1916827bffffffffffffffffffffffffffffffffffffffffffffffffffffffff1916149050919050565b610b1d610d43565b73ffffffffffffffffffffffffffffffffffffffff16610b3b610872565b73ffffffffffffffffffffffffffffffffffffffff1614610b91576040517f08c379a0000000000000000000000000000000000000000000000000000000008152600401610b8890612684565b60405180910390fd5b565b600073ffffffffffffffffffffffffffffffffffffffff168473ffffffffffffffffffffffffffffffffffffffff1603610c02576040517f08c379a0000000000000000000000000000000000000000000000000000000008152600401610bf990612716565b60405180910390fd5b6000610c0c610d43565b90506000610c1985611539565b90506000610c2685611539565b9050610c37836000898585896115b3565b8460008088815260200190815260200160002060008973ffffffffffffffffffffffffffffffffffffffff1673ffffffffffffffffffffffffffffffffffffffff1681526020019081526020016000206000828254610c969190612736565b925050819055508673ffffffffffffffffffffffffffffffffffffffff16600073ffffffffffffffffffffffffffffffffffffffff168473ffffffffffffffffffffffffffffffffffffffff167fc3d58168c5ae7397731d063d5bbf3d657854427343f4c083240f7aacaa2d0f628989604051610d1492919061257d565b60405180910390a4610d2b836000898585896115bb565b610d3a836000898989896115c3565b50505050505050565b600033905090565b8151835114610d8f576040517f08c379a0000000000000000000000000000000000000000000000000000000008152600401610d86906127dc565b60405180910390fd5b600073ffffffffffffffffffffffffffffffffffffffff168473ffffffffffffffffffffffffffffffffffffffff1603610dfe576040517f08c379a0000000000000000000000000000000000000000000000000000000008152600401610df59061286e565b60405180910390fd5b6000610e08610d43565b9050610e188187878787876115b3565b60005b8451811015610fc9576000858281518110610e3957610e386124d7565b5b602002602001015190506000858381518110610e5857610e576124d7565b5b60200260200101519050600080600084815260200190815260200160002060008b73ffffffffffffffffffffffffffffffffffffffff1673ffffffffffffffffffffffffffffffffffffffff16815260200190815260200160002054905081811015610ef9576040517f08c379a0000000000000000000000000000000000000000000000000000000008152600401610ef090612900565b60405180910390fd5b81810360008085815260200190815260200160002060008c73ffffffffffffffffffffffffffffffffffffffff1673ffffffffffffffffffffffffffffffffffffffff168152602001908152602001600020819055508160008085815260200190815260200160002060008b73ffffffffffffffffffffffffffffffffffffffff1673ffffffffffffffffffffffffffffffffffffffff1681526020019081526020016000206000828254610fae9190612736565b9250508190555050505080610fc290612535565b9050610e1b565b508473ffffffffffffffffffffffffffffffffffffffff168673ffffffffffffffffffffffffffffffffffffffff168273ffffffffffffffffffffffffffffffffffffffff167f4a39dc06d4c0dbc64b70af90fd698a233a518aa5d07e595d983b8c0526c8f7fb8787604051611040929190612920565b60405180910390a46110568187878787876115bb565b61106481878787878761179a565b505050505050565b6000600360009054906101000a900473ffffffffffffffffffffffffffffffffffffffff16905081600360006101000a81548173ffffffffffffffffffffffffffffffffffffffff021916908373ffffffffffffffffffffffffffffffffffffffff1602179055508173ffffffffffffffffffffffffffffffffffffffff168173ffffffffffffffffffffffffffffffffffffffff167f8be0079c531659141344cd1fd0a4f28419497f9722a3daafe3b4186f6b6457e060405160405180910390a35050565b8173ffffffffffffffffffffffffffffffffffffffff168373ffffffffffffffffffffffffffffffffffffffff16036111a0576040517f08c379a0000000000000000000000000000000000000000000000000000000008152600401611197906129c9565b60405180910390fd5b80600160008573ffffffffffffffffffffffffffffffffffffffff1673ffffffffffffffffffffffffffffffffffffffff16815260200190815260200160002060008473ffffffffffffffffffffffffffffffffffffffff1673ffffffffffffffffffffffffffffffffffffffff16815260200190815260200160002060006101000a81548160ff0219169083151502179055508173ffffffffffffffffffffffffffffffffffffffff168373ffffffffffffffffffffffffffffffffffffffff167f17307eab39ab6107e8899845ad3d59bd9653f200f220920489ca2b5937696c31836040516112919190611b46565b60405180910390a3505050565b600073ffffffffffffffffffffffffffffffffffffffff168473ffffffffffffffffffffffffffffffffffffffff160361130d576040517f08c379a00000000000000000000000000000000000000000000000000000000081526004016113049061286e565b60405180910390fd5b6000611317610d43565b9050600061132485611539565b9050600061133185611539565b90506113418389898585896115b3565b600080600088815260200190815260200160002060008a73ffffffffffffffffffffffffffffffffffffffff1673ffffffffffffffffffffffffffffffffffffffff168152602001908152602001600020549050858110156113d8576040517f08c379a00000000000000000000000000000000000000000000000000000000081526004016113cf90612900565b60405180910390fd5b85810360008089815260200190815260200160002060008b73ffffffffffffffffffffffffffffffffffffffff1673ffffffffffffffffffffffffffffffffffffffff168152602001908152602001600020819055508560008089815260200190815260200160002060008a73ffffffffffffffffffffffffffffffffffffffff1673ffffffffffffffffffffffffffffffffffffffff168152602001908152602001600020600082825461148d9190612736565b925050819055508773ffffffffffffffffffffffffffffffffffffffff168973ffffffffffffffffffffffffffffffffffffffff168573ffffffffffffffffffffffffffffffffffffffff167fc3d58168c5ae7397731d063d5bbf3d657854427343f4c083240f7aacaa2d0f628a8a60405161150a92919061257d565b60405180910390a4611520848a8a86868a6115bb565b61152e848a8a8a8a8a6115c3565b505050505050505050565b60606000600167ffffffffffffffff81111561155857611557611c45565b5b6040519080825280602002602001820160405280156115865781602001602082028036833780820191505090505b509050828160008151811061159e5761159d6124d7565b5b60200260200101818152505080915050919050565b505050505050565b505050505050565b6115e28473ffffffffffffffffffffffffffffffffffffffff16611971565b15611792578373ffffffffffffffffffffffffffffffffffffffff1663f23a6e6187878686866040518663ffffffff1660e01b8152600401611628959493929190612a3e565b6020604051808303816000875af192505050801561166457506040513d601f19601f820116820180604052508101906116619190612aad565b60015b61170957611670612ae7565b806308c379a0036116cc5750611684612b09565b8061168f57506116ce565b806040517f08c379a00000000000000000000000000000000000000000000000000000000081526004016116c39190611c1e565b60405180910390fd5b505b6040517f08c379a000000000000000000000000000000000000000000000000000000000815260040161170090612c0b565b60405180910390fd5b63f23a6e6160e01b7bffffffffffffffffffffffffffffffffffffffffffffffffffffffff1916817bffffffffffffffffffffffffffffffffffffffffffffffffffffffff191614611790576040517f08c379a000000000000000000000000000000000000000000000000000000000815260040161178790612c9d565b60405180910390fd5b505b505050505050565b6117b98473ffffffffffffffffffffffffffffffffffffffff16611971565b15611969578373ffffffffffffffffffffffffffffffffffffffff1663bc197c8187878686866040518663ffffffff1660e01b81526004016117ff959493929190612cbd565b6020604051808303816000875af192505050801561183b57506040513d601f19601f820116820180604052508101906118389190612aad565b60015b6118e057611847612ae7565b806308c379a0036118a3575061185b612b09565b8061186657506118a5565b806040517f08c379a000000000000000000000000000000000000000000000000000000000815260040161189a9190611c1e565b60405180910390fd5b505b6040517f08c379a00000000000000000000000000000000000000000000000000000000081526004016118d790612c0b565b60405180910390fd5b63bc197c8160e01b7bffffffffffffffffffffffffffffffffffffffffffffffffffffffff1916817bffffffffffffffffffffffffffffffffffffffffffffffffffffffff191614611967576040517f08c379a000000000000000000000000000000000000000000000000000000000815260040161195e90612c9d565b60405180910390fd5b505b505050505050565b6000808273ffffffffffffffffffffffffffffffffffffffff163b119050919050565b6000604051905090565b600080fd5b600080fd5b600073ffffffffffffffffffffffffffffffffffffffff82169050919050565b60006119d3826119a8565b9050919050565b6119e3816119c8565b81146119ee57600080fd5b50565b600081359050611a00816119da565b92915050565b6000819050919050565b611a1981611a06565b8114611a2457600080fd5b50565b600081359050611a3681611a10565b92915050565b60008060408385031215611a5357611a5261199e565b5b6000611a61858286016119f1565b9250506020611a7285828601611a27565b9150509250929050565b611a8581611a06565b82525050565b6000602082019050611aa06000830184611a7c565b92915050565b60007fffffffff0000000000000000000000000000000000000000000000000000000082169050919050565b611adb81611aa6565b8114611ae657600080fd5b50565b600081359050611af881611ad2565b92915050565b600060208284031215611b1457611b1361199e565b5b6000611b2284828501611ae9565b91505092915050565b60008115159050919050565b611b4081611b2b565b82525050565b6000602082019050611b5b6000830184611b37565b92915050565b600060208284031215611b7757611b7661199e565b5b6000611b8584828501611a27565b91505092915050565b600081519050919050565b600082825260208201905092915050565b60005b83811015611bc8578082015181840152602081019050611bad565b60008484015250505050565b6000601f19601f8301169050919050565b6000611bf082611b8e565b611bfa8185611b99565b9350611c0a818560208601611baa565b611c1381611bd4565b840191505092915050565b60006020820190508181036000830152611c388184611be5565b905092915050565b600080fd5b7f4e487b7100000000000000000000000000000000000000000000000000000000600052604160045260246000fd5b611c7d82611bd4565b810181811067ffffffffffffffff82111715611c9c57611c9b611c45565b5b80604052505050565b6000611caf611994565b9050611cbb8282611c74565b919050565b600067ffffffffffffffff821115611cdb57611cda611c45565b5b602082029050602081019050919050565b600080fd5b6000611d04611cff84611cc0565b611ca5565b90508083825260208201905060208402830185811115611d2757611d26611cec565b5b835b81811015611d505780611d3c8882611a27565b845260208401935050602081019050611d29565b5050509392505050565b600082601f830112611d6f57611d6e611c40565b5b8135611d7f848260208601611cf1565b91505092915050565b600080fd5b600067ffffffffffffffff821115611da857611da7611c45565b5b611db182611bd4565b9050602081019050919050565b82818337600083830152505050565b6000611de0611ddb84611d8d565b611ca5565b905082815260208101848484011115611dfc57611dfb611d88565b5b611e07848285611dbe565b509392505050565b600082601f830112611e2457611e23611c40565b5b8135611e34848260208601611dcd565b91505092915050565b600080600080600060a08688031215611e5957611e5861199e565b5b6000611e67888289016119f1565b9550506020611e78888289016119f1565b945050604086013567ffffffffffffffff811115611e9957611e986119a3565b5b611ea588828901611d5a565b935050606086013567ffffffffffffffff811115611ec657611ec56119a3565b5b611ed288828901611d5a565b925050608086013567ffffffffffffffff811115611ef357611ef26119a3565b5b611eff88828901611e0f565b9150509295509295909350565b600067ffffffffffffffff821115611f2757611f26611c45565b5b602082029050602081019050919050565b6000611f4b611f4684611f0c565b611ca5565b90508083825260208201905060208402830185811115611f6e57611f6d611cec565b5b835b81811015611f975780611f8388826119f1565b845260208401935050602081019050611f70565b5050509392505050565b600082601f830112611fb657611fb5611c40565b5b8135611fc6848260208601611f38565b91505092915050565b60008060408385031215611fe657611fe561199e565b5b600083013567ffffffffffffffff811115612004576120036119a3565b5b61201085828601611fa1565b925050602083013567ffffffffffffffff811115612031576120306119a3565b5b61203d85828601611d5a565b9150509250929050565b600081519050919050565b600082825260208201905092915050565b6000819050602082019050919050565b61207c81611a06565b82525050565b600061208e8383612073565b60208301905092915050565b6000602082019050919050565b60006120b282612047565b6120bc8185612052565b93506120c783612063565b8060005b838110156120f85781516120df8882612082565b97506120ea8361209a565b9250506001810190506120cb565b5085935050505092915050565b6000602082019050818103600083015261211f81846120a7565b905092915050565b612130816119c8565b82525050565b600060208201905061214b6000830184612127565b92915050565b61215a81611b2b565b811461216557600080fd5b50565b60008135905061217781612151565b92915050565b600080604083850312156121945761219361199e565b5b60006121a2858286016119f1565b92505060206121b385828601612168565b9150509250929050565b600080604083850312156121d4576121d361199e565b5b60006121e2858286016119f1565b92505060206121f3858286016119f1565b9150509250929050565b600080600080600060a086880312156122195761221861199e565b5b6000612227888289016119f1565b9550506020612238888289016119f1565b945050604061224988828901611a27565b935050606061225a88828901611a27565b925050608086013567ffffffffffffffff81111561227b5761227a6119a3565b5b61228788828901611e0f565b9150509295509295909350565b6000602082840312156122aa576122a961199e565b5b60006122b8848285016119f1565b91505092915050565b7f455243313135353a2061646472657373207a65726f206973206e6f742061207660008201527f616c6964206f776e657200000000000000000000000000000000000000000000602082015250565b600061231d602a83611b99565b9150612328826122c1565b604082019050919050565b6000602082019050818103600083015261234c81612310565b9050919050565b7f4e487b7100000000000000000000000000000000000000000000000000000000600052602260045260246000fd5b6000600282049050600182168061239a57607f821691505b6020821081036123ad576123ac612353565b5b50919050565b7f455243313135353a2063616c6c6572206973206e6f7420746f6b656e206f776e60008201527f6572206f7220617070726f766564000000000000000000000000000000000000602082015250565b600061240f602e83611b99565b915061241a826123b3565b604082019050919050565b6000602082019050818103600083015261243e81612402565b9050919050565b7f455243313135353a206163636f756e747320616e6420696473206c656e67746860008201527f206d69736d617463680000000000000000000000000000000000000000000000602082015250565b60006124a1602983611b99565b91506124ac82612445565b604082019050919050565b600060208201905081810360008301526124d081612494565b9050919050565b7f4e487b7100000000000000000000000000000000000000000000000000000000600052603260045260246000fd5b7f4e487b7100000000000000000000000000000000000000000000000000000000600052601160045260246000fd5b600061254082611a06565b91507fffffffffffffffffffffffffffffffffffffffffffffffffffffffffffffffff820361257257612571612506565b5b600182019050919050565b60006040820190506125926000830185611a7c565b61259f6020830184611a7c565b9392505050565b7f4f776e61626c653a206e6577206f776e657220697320746865207a65726f206160008201527f6464726573730000000000000000000000000000000000000000000000000000602082015250565b6000612602602683611b99565b915061260d826125a6565b604082019050919050565b60006020820190508181036000830152612631816125f5565b9050919050565b7f4f776e61626c653a2063616c6c6572206973206e6f7420746865206f776e6572600082015250565b600061266e602083611b99565b915061267982612638565b602082019050919050565b6000602082019050818103600083015261269d81612661565b9050919050565b7f455243313135353a206d696e7420746f20746865207a65726f2061646472657360008201527f7300000000000000000000000000000000000000000000000000000000000000602082015250565b6000612700602183611b99565b915061270b826126a4565b604082019050919050565b6000602082019050818103600083015261272f816126f3565b9050919050565b600061274182611a06565b915061274c83611a06565b925082820190508082111561276457612763612506565b5b92915050565b7f455243313135353a2069647320616e6420616d6f756e7473206c656e6774682060008201527f6d69736d61746368000000000000000000000000000000000000000000000000602082015250565b60006127c6602883611b99565b91506127d18261276a565b604082019050919050565b600060208201905081810360008301526127f5816127b9565b9050919050565b7f455243313135353a207472616e7366657220746f20746865207a65726f20616460008201527f6472657373000000000000000000000000000000000000000000000000000000602082015250565b6000612858602583611b99565b9150612863826127fc565b604082019050919050565b600060208201905081810360008301526128878161284b565b9050919050565b7f455243313135353a20696e73756666696369656e742062616c616e636520666f60008201527f72207472616e7366657200000000000000000000000000000000000000000000602082015250565b60006128ea602a83611b99565b91506128f58261288e565b604082019050919050565b60006020820190508181036000830152612919816128dd565b9050919050565b6000604082019050818103600083015261293a81856120a7565b9050818103602083015261294e81846120a7565b90509392505050565b7f455243313135353a2073657474696e6720617070726f76616c2073746174757360008201527f20666f722073656c660000000000000000000000000000000000000000000000602082015250565b60006129b3602983611b99565b91506129be82612957565b604082019050919050565b600060208201905081810360008301526129e2816129a6565b9050919050565b600081519050919050565b600082825260208201905092915050565b6000612a10826129e9565b612a1a81856129f4565b9350612a2a818560208601611baa565b612a3381611bd4565b840191505092915050565b600060a082019050612a536000830188612127565b612a606020830187612127565b612a6d6040830186611a7c565b612a7a6060830185611a7c565b8181036080830152612a8c8184612a05565b90509695505050505050565b600081519050612aa781611ad2565b92915050565b600060208284031215612ac357612ac261199e565b5b6000612ad184828501612a98565b91505092915050565b60008160e01c9050919050565b600060033d1115612b065760046000803e612b03600051612ada565b90505b90565b600060443d10612b9657612b1b611994565b60043d036004823e80513d602482011167ffffffffffffffff82111715612b43575050612b96565b808201805167ffffffffffffffff811115612b615750505050612b96565b80602083010160043d038501811115612b7e575050505050612b96565b612b8d82602001850186611c74565b82955050505050505b90565b7f455243313135353a207472616e7366657220746f206e6f6e2d4552433131353560008201527f526563656976657220696d706c656d656e746572000000000000000000000000602082015250565b6000612bf5603483611b99565b9150612c0082612b99565b604082019050919050565b60006020820190508181036000830152612c2481612be8565b9050919050565b7f455243313135353a204552433131353552656365697665722072656a6563746560008201527f6420746f6b656e73000000000000000000000000000000000000000000000000602082015250565b6000612c87602883611b99565b9150612c9282612c2b565b604082019050919050565b60006020820190508181036000830152612cb681612c7a565b9050919050565b600060a082019050612cd26000830188612127565b612cdf6020830187612127565b8181036040830152612cf181866120a7565b90508181036060830152612d0581856120a7565b90508181036080830152612d198184612a05565b9050969550505050505056fea2646970667358221220254f378d1490c24e95e13d421a28142632e663fa38a02a4a858227ecc1f9ddc964736f6c63430008120033",
  "linkReferences": {},
  "deployedLinkReferences": {}
}