{
  "_format": "hh-sol-artifact-1",
  "contractName": "MartianMunchies",
  "sourceName": "contracts/MartianMunchies.sol",
  "abi": [
    {
      "inputs": [],
      "stateMutability": "nonpayable",
      "type": "constructor"
    },
    {
      "anonymous": false,
      "inputs": [
        {
          "indexed": true,
          "internalType": "address",
          "name": "account",
          "type": "address"
        },
        {
          "indexed": true,
          "internalType": "address",
          "name": "operator",
          "type": "address"
        },
        {
          "indexed": false,
          "internalType": "bool",
          "name": "approved",
          "type": "bool"
        }
      ],
      "name": "ApprovalForAll",
      "type": "event"
    },
    {
      "anonymous": false,
      "inputs": [
        {
          "indexed": false,
          "internalType": "uint256",
          "name": "orderId",
          "type": "uint256"
        },
        {
          "indexed": false,
          "internalType": "uint256",
          "name": "amount",
          "type": "uint256"
        }
      ],
      "name": "Order",
      "type": "event"
    },
    {
      "anonymous": false,
      "inputs": [
        {
          "indexed": true,
          "internalType": "address",
          "name": "previousOwner",
          "type": "address"
        },
        {
          "indexed": true,
          "internalType": "address",
          "name": "newOwner",
          "type": "address"
        }
      ],
      "name": "OwnershipTransferred",
      "type": "event"
    },
    {
      "anonymous": false,
      "inputs": [
        {
          "indexed": true,
          "internalType": "address",
          "name": "operator",
          "type": "address"
        },
        {
          "indexed": true,
          "internalType": "address",
          "name": "from",
          "type": "address"
        },
        {
          "indexed": true,
          "internalType": "address",
          "name": "to",
          "type": "address"
        },
        {
          "indexed": false,
          "internalType": "uint256[]",
          "name": "ids",
          "type": "uint256[]"
        },
        {
          "indexed": false,
          "internalType": "uint256[]",
          "name": "values",
          "type": "uint256[]"
        }
      ],
      "name": "TransferBatch",
      "type": "event"
    },
    {
      "anonymous": false,
      "inputs": [
        {
          "indexed": true,
          "internalType": "address",
          "name": "operator",
          "type": "address"
        },
        {
          "indexed": true,
          "internalType": "address",
          "name": "from",
          "type": "address"
        },
        {
          "indexed": true,
          "internalType": "address",
          "name": "to",
          "type": "address"
        },
        {
          "indexed": false,
          "internalType": "uint256",
          "name": "id",
          "type": "uint256"
        },
        {
          "indexed": false,
          "internalType": "uint256",
          "name": "value",
          "type": "uint256"
        }
      ],
      "name": "TransferSingle",
      "type": "event"
    },
    {
      "anonymous": false,
      "inputs": [
        {
          "indexed": false,
          "internalType": "string",
          "name": "value",
          "type": "string"
        },
        {
          "indexed": true,
          "internalType": "uint256",
          "name": "id",
          "type": "uint256"
        }
      ],
      "name": "URI",
      "type": "event"
    },
    {
      "inputs": [],
      "name": "MUNCHIE_TOKEN",
      "outputs": [
        {
          "internalType": "uint256",
          "name": "",
          "type": "uint256"
        }
      ],
      "stateMutability": "view",
      "type": "function"
    },
    {
      "inputs": [
        {
          "internalType": "address",
          "name": "account",
          "type": "address"
        },
        {
          "internalType": "uint256",
          "name": "id",
          "type": "uint256"
        }
      ],
      "name": "awardNFT",
      "outputs": [],
      "stateMutability": "nonpayable",
      "type": "function"
    },
    {
      "inputs": [
        {
          "internalType": "address",
          "name": "account",
          "type": "address"
        },
        {
          "internalType": "uint256",
          "name": "amount",
          "type": "uint256"
        }
      ],
      "name": "awardTokens",
      "outputs": [],
      "stateMutability": "nonpayable",
      "type": "function"
    },
    {
      "inputs": [
        {
          "internalType": "address",
          "name": "account",
          "type": "address"
        },
        {
          "internalType": "uint256",
          "name": "id",
          "type": "uint256"
        }
      ],
      "name": "balanceOf",
      "outputs": [
        {
          "internalType": "uint256",
          "name": "",
          "type": "uint256"
        }
      ],
      "stateMutability": "view",
      "type": "function"
    },
    {
      "inputs": [
        {
          "internalType": "address[]",
          "name": "accounts",
          "type": "address[]"
        },
        {
          "internalType": "uint256[]",
          "name": "ids",
          "type": "uint256[]"
        }
      ],
      "name": "balanceOfBatch",
      "outputs": [
        {
          "internalType": "uint256[]",
          "name": "",
          "type": "uint256[]"
        }
      ],
      "stateMutability": "view",
      "type": "function"
    },
    {
      "inputs": [
        {
          "internalType": "address",
          "name": "account",
          "type": "address"
        },
        {
          "internalType": "address",
          "name": "operator",
          "type": "address"
        }
      ],
      "name": "isApprovedForAll",
      "outputs": [
        {
          "internalType": "bool",
          "name": "",
          "type": "bool"
        }
      ],
      "stateMutability": "view",
      "type": "function"
    },
    {
      "inputs": [],
      "name": "owner",
      "outputs": [
        {
          "internalType": "address",
          "name": "",
          "type": "address"
        }
      ],
      "stateMutability": "view",
      "type": "function"
    },
    {
      "inputs": [
        {
          "internalType": "uint256",
          "name": "orderId",
          "type": "uint256"
        }
      ],
      "name": "purchase",
      "outputs": [],
      "stateMutability": "payable",
      "type": "function"
    },
    {
      "inputs": [
        {
          "internalType": "address",
          "name": "account",
          "type": "address"
        },
        {
          "internalType": "uint256",
          "name": "amount",
          "type": "uint256"
        }
      ],
      "name": "removeTokens",
      "outputs": [],
      "stateMutability": "nonpayable",
      "type": "function"
    },
    {
      "inputs": [],
      "name": "renounceOwnership",
      "outputs": [],
      "stateMutability": "nonpayable",
      "type": "function"
    },
    {
      "inputs": [
        {
          "internalType": "address",
          "name": "from",
          "type": "address"
        },
        {
          "internalType": "address",
          "name": "to",
          "type": "address"
        },
        {
          "internalType": "uint256[]",
          "name": "ids",
          "type": "uint256[]"
        },
        {
          "internalType": "uint256[]",
          "name": "amounts",
          "type": "uint256[]"
        },
        {
          "internalType": "bytes",
          "name": "data",
          "type": "bytes"
        }
      ],
      "name": "safeBatchTransferFrom",
      "outputs": [],
      "stateMutability": "nonpayable",
      "type": "function"
    },
    {
      "inputs": [
        {
          "internalType": "address",
          "name": "from",
          "type": "address"
        },
        {
          "internalType": "address",
          "name": "to",
          "type": "address"
        },
        {
          "internalType": "uint256",
          "name": "id",
          "type": "uint256"
        },
        {
          "internalType": "uint256",
          "name": "amount",
          "type": "uint256"
        },
        {
          "internalType": "bytes",
          "name": "data",
          "type": "bytes"
        }
      ],
      "name": "safeTransferFrom",
      "outputs": [],
      "stateMutability": "nonpayable",
      "type": "function"
    },
    {
      "inputs": [
        {
          "internalType": "address",
          "name": "operator",
          "type": "address"
        },
        {
          "internalType": "bool",
          "name": "approved",
          "type": "bool"
        }
      ],
      "name": "setApprovalForAll",
      "outputs": [],
      "stateMutability": "nonpayable",
      "type": "function"
    },
    {
      "inputs": [
        {
          "internalType": "bytes4",
          "name": "interfaceId",
          "type": "bytes4"
        }
      ],
      "name": "supportsInterface",
      "outputs": [
        {
          "internalType": "bool",
          "name": "",
          "type": "bool"
        }
      ],
      "stateMutability": "view",
      "type": "function"
    },
    {
      "inputs": [
        {
          "internalType": "address",
          "name": "newOwner",
          "type": "address"
        }
      ],
      "name": "transferOwnership",
      "outputs": [],
      "stateMutability": "nonpayable",
      "type": "function"
    },
    {
      "inputs": [
        {
          "internalType": "uint256",
          "name": "",
          "type": "uint256"
        }
      ],
      "name": "uri",
      "outputs": [
        {
          "internalType": "string",
          "name": "",
          "type": "string"
        }
      ],
      "stateMutability": "view",
      "type": "function"
    },
    {
      "inputs": [],
      "name": "withdraw",
      "outputs": [],
      "stateMutability": "nonpayable",
      "type": "function"
    }
  ],
  "bytecode": "0x60806040523480156200001157600080fd5b506040518060600160405280602a81526020016200326f602a91396200003d816200006460201b60201c565b506200005e620000526200007960201b60201c565b6200008160201b60201c565b620004a8565b8060029081620000759190620003c1565b5050565b600033905090565b6000600360009054906101000a900473ffffffffffffffffffffffffffffffffffffffff16905081600360006101000a81548173ffffffffffffffffffffffffffffffffffffffff021916908373ffffffffffffffffffffffffffffffffffffffff1602179055508173ffffffffffffffffffffffffffffffffffffffff168173ffffffffffffffffffffffffffffffffffffffff167f8be0079c531659141344cd1fd0a4f28419497f9722a3daafe3b4186f6b6457e060405160405180910390a35050565b600081519050919050565b7f4e487b7100000000000000000000000000000000000000000000000000000000600052604160045260246000fd5b7f4e487b7100000000000000000000000000000000000000000000000000000000600052602260045260246000fd5b60006002820490506001821680620001c957607f821691505b602082108103620001df57620001de62000181565b5b50919050565b60008190508160005260206000209050919050565b60006020601f8301049050919050565b600082821b905092915050565b600060088302620002497fffffffffffffffffffffffffffffffffffffffffffffffffffffffffffffffff826200020a565b6200025586836200020a565b95508019841693508086168417925050509392505050565b6000819050919050565b6000819050919050565b6000620002a26200029c62000296846200026d565b62000277565b6200026d565b9050919050565b6000819050919050565b620002be8362000281565b620002d6620002cd82620002a9565b84845462000217565b825550505050565b600090565b620002ed620002de565b620002fa818484620002b3565b505050565b5b81811015620003225762000316600082620002e3565b60018101905062000300565b5050565b601f82111562000371576200033b81620001e5565b6200034684620001fa565b8101602085101562000356578190505b6200036e6200036585620001fa565b830182620002ff565b50505b505050565b600082821c905092915050565b6000620003966000198460080262000376565b1980831691505092915050565b6000620003b1838362000383565b9150826002028217905092915050565b620003cc8262000147565b67ffffffffffffffff811115620003e857620003e762000152565b5b620003f48254620001b0565b6200040182828562000326565b600060209050601f83116001811462000439576000841562000424578287015190505b620004308582620003a3565b865550620004a0565b601f1984166200044986620001e5565b60005b8281101562000473578489015182556001820191506020850194506020810190506200044c565b868310156200049357848901516200048f601f89168262000383565b8355505b6001600288020188555050505b505050505050565b612db780620004b86000396000f3fe6080604052600436106100fd5760003560e01c806354fe63aa11610095578063a22cb46511610064578063a22cb4651461031e578063e985e9c514610347578063efef39a114610384578063f242432a146103a0578063f2fde38b146103c9576100fd565b806354fe63aa14610288578063715018a6146102b15780638da5cb5b146102c857806398759ba3146102f3576100fd565b80632b581990116100d15780632b581990146101e25780632eb2c2d61461020b5780633ccfd60b146102345780634e1273f41461024b576100fd565b8062fdd58e1461010257806301ffc9a71461013f5780630e89341c1461017c5780631e10eeaf146101b9575b600080fd5b34801561010e57600080fd5b5061012960048036038101906101249190611a98565b6103f2565b6040516101369190611ae7565b60405180910390f35b34801561014b57600080fd5b5061016660048036038101906101619190611b5a565b6104ba565b6040516101739190611ba2565b60405180910390f35b34801561018857600080fd5b506101a3600480360381019061019e9190611bbd565b61059c565b6040516101b09190611c7a565b60405180910390f35b3480156101c557600080fd5b506101e060048036038101906101db9190611a98565b610630565b005b3480156101ee57600080fd5b5061020960048036038101906102049190611a98565b610658565b005b34801561021757600080fd5b50610232600480360381019061022d9190611e99565b610680565b005b34801561024057600080fd5b50610249610721565b005b34801561025757600080fd5b50610272600480360381019061026d919061202b565b610779565b60405161027f9190612161565b60405180910390f35b34801561029457600080fd5b506102af60048036038101906102aa9190611a98565b610892565b005b3480156102bd57600080fd5b506102c66108ba565b005b3480156102d457600080fd5b506102dd6108ce565b6040516102ea9190612192565b60405180910390f35b3480156102ff57600080fd5b506103086108f8565b6040516103159190611ae7565b60405180910390f35b34801561032a57600080fd5b50610345600480360381019061034091906121d9565b6108fd565b005b34801561035357600080fd5b5061036e60048036038101906103699190612219565b610913565b60405161037b9190611ba2565b60405180910390f35b61039e60048036038101906103999190611bbd565b6109a7565b005b3480156103ac57600080fd5b506103c760048036038101906103c29190612259565b6109e3565b005b3480156103d557600080fd5b506103f060048036038101906103eb91906122f0565b610a84565b005b60008073ffffffffffffffffffffffffffffffffffffffff168373ffffffffffffffffffffffffffffffffffffffff1603610462576040517f08c379a00000000000000000000000000000000000000000000000000000000081526004016104599061238f565b60405180910390fd5b60008083815260200190815260200160002060008473ffffffffffffffffffffffffffffffffffffffff1673ffffffffffffffffffffffffffffffffffffffff16815260200190815260200160002054905092915050565b60007fd9b67a26000000000000000000000000000000000000000000000000000000007bffffffffffffffffffffffffffffffffffffffffffffffffffffffff1916827bffffffffffffffffffffffffffffffffffffffffffffffffffffffff1916148061058557507f0e89341c000000000000000000000000000000000000000000000000000000007bffffffffffffffffffffffffffffffffffffffffffffffffffffffff1916827bffffffffffffffffffffffffffffffffffffffffffffffffffffffff1916145b80610595575061059482610b07565b5b9050919050565b6060600280546105ab906123de565b80601f01602080910402602001604051908101604052809291908181526020018280546105d7906123de565b80156106245780601f106105f957610100808354040283529160200191610624565b820191906000526020600020905b81548152906001019060200180831161060757829003601f168201915b50505050509050919050565b610638610b71565b6106548260008360405180602001604052806000815250610bef565b5050565b610660610b71565b61067c8260008360405180602001604052806000815250610bef565b5050565b610688610d9f565b73ffffffffffffffffffffffffffffffffffffffff168573ffffffffffffffffffffffffffffffffffffffff1614806106ce57506106cd856106c8610d9f565b610913565b5b61070d576040517f08c379a000000000000000000000000000000000000000000000000000000000815260040161070490612481565b60405180910390fd5b61071a8585858585610da7565b5050505050565b610729610b71565b6107316108ce565b73ffffffffffffffffffffffffffffffffffffffff166108fc479081150290604051600060405180830381858888f19350505050158015610776573d6000803e3d6000fd5b50565b606081518351146107bf576040517f08c379a00000000000000000000000000000000000000000000000000000000081526004016107b690612513565b60405180910390fd5b6000835167ffffffffffffffff8111156107dc576107db611ca1565b5b60405190808252806020026020018201604052801561080a5781602001602082028036833780820191505090505b50905060005b84518110156108875761085785828151811061082f5761082e612533565b5b602002602001015185838151811061084a57610849612533565b5b60200260200101516103f2565b82828151811061086a57610869612533565b5b6020026020010181815250508061088090612591565b9050610810565b508091505092915050565b61089a610b71565b6108b68282600160405180602001604052806000815250610bef565b5050565b6108c2610b71565b6108cc60006110c8565b565b6000600360009054906101000a900473ffffffffffffffffffffffffffffffffffffffff16905090565b600081565b61090f610908610d9f565b838361118e565b5050565b6000600160008473ffffffffffffffffffffffffffffffffffffffff1673ffffffffffffffffffffffffffffffffffffffff16815260200190815260200160002060008373ffffffffffffffffffffffffffffffffffffffff1673ffffffffffffffffffffffffffffffffffffffff16815260200190815260200160002060009054906101000a900460ff16905092915050565b7fbe70e33d80380c63f65df11f18bcad572571d76e3404798a9050dfb112101bf481346040516109d89291906125d9565b60405180910390a150565b6109eb610d9f565b73ffffffffffffffffffffffffffffffffffffffff168573ffffffffffffffffffffffffffffffffffffffff161480610a315750610a3085610a2b610d9f565b610913565b5b610a70576040517f08c379a0000000000000000000000000000000000000000000000000000000008152600401610a6790612481565b60405180910390fd5b610a7d85858585856112fa565b5050505050565b610a8c610b71565b600073ffffffffffffffffffffffffffffffffffffffff168173ffffffffffffffffffffffffffffffffffffffff1603610afb576040517f08c379a0000000000000000000000000000000000000000000000000000000008152600401610af290612674565b60405180910390fd5b610b04816110c8565b50565b60007f01ffc9a7000000000000000000000000000000000000000000000000000000007bffffffffffffffffffffffffffffffffffffffffffffffffffffffff1916827bffffffffffffffffffffffffffffffffffffffffffffffffffffffff1916149050919050565b610b79610d9f565b73ffffffffffffffffffffffffffffffffffffffff16610b976108ce565b73ffffffffffffffffffffffffffffffffffffffff1614610bed576040517f08c379a0000000000000000000000000000000000000000000000000000000008152600401610be4906126e0565b60405180910390fd5b565b600073ffffffffffffffffffffffffffffffffffffffff168473ffffffffffffffffffffffffffffffffffffffff1603610c5e576040517f08c379a0000000000000000000000000000000000000000000000000000000008152600401610c5590612772565b60405180910390fd5b6000610c68610d9f565b90506000610c7585611595565b90506000610c8285611595565b9050610c938360008985858961160f565b8460008088815260200190815260200160002060008973ffffffffffffffffffffffffffffffffffffffff1673ffffffffffffffffffffffffffffffffffffffff1681526020019081526020016000206000828254610cf29190612792565b925050819055508673ffffffffffffffffffffffffffffffffffffffff16600073ffffffffffffffffffffffffffffffffffffffff168473ffffffffffffffffffffffffffffffffffffffff167fc3d58168c5ae7397731d063d5bbf3d657854427343f4c083240f7aacaa2d0f628989604051610d709291906125d9565b60405180910390a4610d8783600089858589611617565b610d968360008989898961161f565b50505050505050565b600033905090565b8151835114610deb576040517f08c379a0000000000000000000000000000000000000000000000000000000008152600401610de290612838565b60405180910390fd5b600073ffffffffffffffffffffffffffffffffffffffff168473ffffffffffffffffffffffffffffffffffffffff1603610e5a576040517f08c379a0000000000000000000000000000000000000000000000000000000008152600401610e51906128ca565b60405180910390fd5b6000610e64610d9f565b9050610e7481878787878761160f565b60005b8451811015611025576000858281518110610e9557610e94612533565b5b602002602001015190506000858381518110610eb457610eb3612533565b5b60200260200101519050600080600084815260200190815260200160002060008b73ffffffffffffffffffffffffffffffffffffffff1673ffffffffffffffffffffffffffffffffffffffff16815260200190815260200160002054905081811015610f55576040517f08c379a0000000000000000000000000000000000000000000000000000000008152600401610f4c9061295c565b60405180910390fd5b81810360008085815260200190815260200160002060008c73ffffffffffffffffffffffffffffffffffffffff1673ffffffffffffffffffffffffffffffffffffffff168152602001908152602001600020819055508160008085815260200190815260200160002060008b73ffffffffffffffffffffffffffffffffffffffff1673ffffffffffffffffffffffffffffffffffffffff168152602001908152602001600020600082825461100a9190612792565b925050819055505050508061101e90612591565b9050610e77565b508473ffffffffffffffffffffffffffffffffffffffff168673ffffffffffffffffffffffffffffffffffffffff168273ffffffffffffffffffffffffffffffffffffffff167f4a39dc06d4c0dbc64b70af90fd698a233a518aa5d07e595d983b8c0526c8f7fb878760405161109c92919061297c565b60405180910390a46110b2818787878787611617565b6110c08187878787876117f6565b505050505050565b6000600360009054906101000a900473ffffffffffffffffffffffffffffffffffffffff16905081600360006101000a81548173ffffffffffffffffffffffffffffffffffffffff021916908373ffffffffffffffffffffffffffffffffffffffff1602179055508173ffffffffffffffffffffffffffffffffffffffff168173ffffffffffffffffffffffffffffffffffffffff167f8be0079c531659141344cd1fd0a4f28419497f9722a3daafe3b4186f6b6457e060405160405180910390a35050565b8173ffffffffffffffffffffffffffffffffffffffff168373ffffffffffffffffffffffffffffffffffffffff16036111fc576040517f08c379a00000000000000000000000000000000000000000000000000000000081526004016111f390612a25565b60405180910390fd5b80600160008573ffffffffffffffffffffffffffffffffffffffff1673ffffffffffffffffffffffffffffffffffffffff16815260200190815260200160002060008473ffffffffffffffffffffffffffffffffffffffff1673ffffffffffffffffffffffffffffffffffffffff16815260200190815260200160002060006101000a81548160ff0219169083151502179055508173ffffffffffffffffffffffffffffffffffffffff168373ffffffffffffffffffffffffffffffffffffffff167f17307eab39ab6107e8899845ad3d59bd9653f200f220920489ca2b5937696c31836040516112ed9190611ba2565b60405180910390a3505050565b600073ffffffffffffffffffffffffffffffffffffffff168473ffffffffffffffffffffffffffffffffffffffff1603611369576040517f08c379a0000000000000000000000000000000000000000000000000000000008152600401611360906128ca565b60405180910390fd5b6000611373610d9f565b9050600061138085611595565b9050600061138d85611595565b905061139d83898985858961160f565b600080600088815260200190815260200160002060008a73ffffffffffffffffffffffffffffffffffffffff1673ffffffffffffffffffffffffffffffffffffffff16815260200190815260200160002054905085811015611434576040517f08c379a000000000000000000000000000000000000000000000000000000000815260040161142b9061295c565b60405180910390fd5b85810360008089815260200190815260200160002060008b73ffffffffffffffffffffffffffffffffffffffff1673ffffffffffffffffffffffffffffffffffffffff168152602001908152602001600020819055508560008089815260200190815260200160002060008a73ffffffffffffffffffffffffffffffffffffffff1673ffffffffffffffffffffffffffffffffffffffff16815260200190815260200160002060008282546114e99190612792565b925050819055508773ffffffffffffffffffffffffffffffffffffffff168973ffffffffffffffffffffffffffffffffffffffff168573ffffffffffffffffffffffffffffffffffffffff167fc3d58168c5ae7397731d063d5bbf3d657854427343f4c083240f7aacaa2d0f628a8a6040516115669291906125d9565b60405180910390a461157c848a8a86868a611617565b61158a848a8a8a8a8a61161f565b505050505050505050565b60606000600167ffffffffffffffff8111156115b4576115b3611ca1565b5b6040519080825280602002602001820160405280156115e25781602001602082028036833780820191505090505b50905082816000815181106115fa576115f9612533565b5b60200260200101818152505080915050919050565b505050505050565b505050505050565b61163e8473ffffffffffffffffffffffffffffffffffffffff166119cd565b156117ee578373ffffffffffffffffffffffffffffffffffffffff1663f23a6e6187878686866040518663ffffffff1660e01b8152600401611684959493929190612a9a565b6020604051808303816000875af19250505080156116c057506040513d601f19601f820116820180604052508101906116bd9190612b09565b60015b611765576116cc612b43565b806308c379a00361172857506116e0612b65565b806116eb575061172a565b806040517f08c379a000000000000000000000000000000000000000000000000000000000815260040161171f9190611c7a565b60405180910390fd5b505b6040517f08c379a000000000000000000000000000000000000000000000000000000000815260040161175c90612c67565b60405180910390fd5b63f23a6e6160e01b7bffffffffffffffffffffffffffffffffffffffffffffffffffffffff1916817bffffffffffffffffffffffffffffffffffffffffffffffffffffffff1916146117ec576040517f08c379a00000000000000000000000000000000000000000000000000000000081526004016117e390612cf9565b60405180910390fd5b505b505050505050565b6118158473ffffffffffffffffffffffffffffffffffffffff166119cd565b156119c5578373ffffffffffffffffffffffffffffffffffffffff1663bc197c8187878686866040518663ffffffff1660e01b815260040161185b959493929190612d19565b6020604051808303816000875af192505050801561189757506040513d601f19601f820116820180604052508101906118949190612b09565b60015b61193c576118a3612b43565b806308c379a0036118ff57506118b7612b65565b806118c25750611901565b806040517f08c379a00000000000000000000000000000000000000000000000000000000081526004016118f69190611c7a565b60405180910390fd5b505b6040517f08c379a000000000000000000000000000000000000000000000000000000000815260040161193390612c67565b60405180910390fd5b63bc197c8160e01b7bffffffffffffffffffffffffffffffffffffffffffffffffffffffff1916817bffffffffffffffffffffffffffffffffffffffffffffffffffffffff1916146119c3576040517f08c379a00000000000000000000000000000000000000000000000000000000081526004016119ba90612cf9565b60405180910390fd5b505b505050505050565b6000808273ffffffffffffffffffffffffffffffffffffffff163b119050919050565b6000604051905090565b600080fd5b600080fd5b600073ffffffffffffffffffffffffffffffffffffffff82169050919050565b6000611a2f82611a04565b9050919050565b611a3f81611a24565b8114611a4a57600080fd5b50565b600081359050611a5c81611a36565b92915050565b6000819050919050565b611a7581611a62565b8114611a8057600080fd5b50565b600081359050611a9281611a6c565b92915050565b60008060408385031215611aaf57611aae6119fa565b5b6000611abd85828601611a4d565b9250506020611ace85828601611a83565b9150509250929050565b611ae181611a62565b82525050565b6000602082019050611afc6000830184611ad8565b92915050565b60007fffffffff0000000000000000000000000000000000000000000000000000000082169050919050565b611b3781611b02565b8114611b4257600080fd5b50565b600081359050611b5481611b2e565b92915050565b600060208284031215611b7057611b6f6119fa565b5b6000611b7e84828501611b45565b91505092915050565b60008115159050919050565b611b9c81611b87565b82525050565b6000602082019050611bb76000830184611b93565b92915050565b600060208284031215611bd357611bd26119fa565b5b6000611be184828501611a83565b91505092915050565b600081519050919050565b600082825260208201905092915050565b60005b83811015611c24578082015181840152602081019050611c09565b60008484015250505050565b6000601f19601f8301169050919050565b6000611c4c82611bea565b611c568185611bf5565b9350611c66818560208601611c06565b611c6f81611c30565b840191505092915050565b60006020820190508181036000830152611c948184611c41565b905092915050565b600080fd5b7f4e487b7100000000000000000000000000000000000000000000000000000000600052604160045260246000fd5b611cd982611c30565b810181811067ffffffffffffffff82111715611cf857611cf7611ca1565b5b80604052505050565b6000611d0b6119f0565b9050611d178282611cd0565b919050565b600067ffffffffffffffff821115611d3757611d36611ca1565b5b602082029050602081019050919050565b600080fd5b6000611d60611d5b84611d1c565b611d01565b90508083825260208201905060208402830185811115611d8357611d82611d48565b5b835b81811015611dac5780611d988882611a83565b845260208401935050602081019050611d85565b5050509392505050565b600082601f830112611dcb57611dca611c9c565b5b8135611ddb848260208601611d4d565b91505092915050565b600080fd5b600067ffffffffffffffff821115611e0457611e03611ca1565b5b611e0d82611c30565b9050602081019050919050565b82818337600083830152505050565b6000611e3c611e3784611de9565b611d01565b905082815260208101848484011115611e5857611e57611de4565b5b611e63848285611e1a565b509392505050565b600082601f830112611e8057611e7f611c9c565b5b8135611e90848260208601611e29565b91505092915050565b600080600080600060a08688031215611eb557611eb46119fa565b5b6000611ec388828901611a4d565b9550506020611ed488828901611a4d565b945050604086013567ffffffffffffffff811115611ef557611ef46119ff565b5b611f0188828901611db6565b935050606086013567ffffffffffffffff811115611f2257611f216119ff565b5b611f2e88828901611db6565b925050608086013567ffffffffffffffff811115611f4f57611f4e6119ff565b5b611f5b88828901611e6b565b9150509295509295909350565b600067ffffffffffffffff821115611f8357611f82611ca1565b5b602082029050602081019050919050565b6000611fa7611fa284611f68565b611d01565b90508083825260208201905060208402830185811115611fca57611fc9611d48565b5b835b81811015611ff35780611fdf8882611a4d565b845260208401935050602081019050611fcc565b5050509392505050565b600082601f83011261201257612011611c9c565b5b8135612022848260208601611f94565b91505092915050565b60008060408385031215612042576120416119fa565b5b600083013567ffffffffffffffff8111156120605761205f6119ff565b5b61206c85828601611ffd565b925050602083013567ffffffffffffffff81111561208d5761208c6119ff565b5b61209985828601611db6565b9150509250929050565b600081519050919050565b600082825260208201905092915050565b6000819050602082019050919050565b6120d881611a62565b82525050565b60006120ea83836120cf565b60208301905092915050565b6000602082019050919050565b600061210e826120a3565b61211881856120ae565b9350612123836120bf565b8060005b8381101561215457815161213b88826120de565b9750612146836120f6565b925050600181019050612127565b5085935050505092915050565b6000602082019050818103600083015261217b8184612103565b905092915050565b61218c81611a24565b82525050565b60006020820190506121a76000830184612183565b92915050565b6121b681611b87565b81146121c157600080fd5b50565b6000813590506121d3816121ad565b92915050565b600080604083850312156121f0576121ef6119fa565b5b60006121fe85828601611a4d565b925050602061220f858286016121c4565b9150509250929050565b600080604083850312156122305761222f6119fa565b5b600061223e85828601611a4d565b925050602061224f85828601611a4d565b9150509250929050565b600080600080600060a08688031215612275576122746119fa565b5b600061228388828901611a4d565b955050602061229488828901611a4d565b94505060406122a588828901611a83565b93505060606122b688828901611a83565b925050608086013567ffffffffffffffff8111156122d7576122d66119ff565b5b6122e388828901611e6b565b9150509295509295909350565b600060208284031215612306576123056119fa565b5b600061231484828501611a4d565b91505092915050565b7f455243313135353a2061646472657373207a65726f206973206e6f742061207660008201527f616c6964206f776e657200000000000000000000000000000000000000000000602082015250565b6000612379602a83611bf5565b91506123848261231d565b604082019050919050565b600060208201905081810360008301526123a88161236c565b9050919050565b7f4e487b7100000000000000000000000000000000000000000000000000000000600052602260045260246000fd5b600060028204905060018216806123f657607f821691505b602082108103612409576124086123af565b5b50919050565b7f455243313135353a2063616c6c6572206973206e6f7420746f6b656e206f776e60008201527f6572206f7220617070726f766564000000000000000000000000000000000000602082015250565b600061246b602e83611bf5565b91506124768261240f565b604082019050919050565b6000602082019050818103600083015261249a8161245e565b9050919050565b7f455243313135353a206163636f756e747320616e6420696473206c656e67746860008201527f206d69736d617463680000000000000000000000000000000000000000000000602082015250565b60006124fd602983611bf5565b9150612508826124a1565b604082019050919050565b6000602082019050818103600083015261252c816124f0565b9050919050565b7f4e487b7100000000000000000000000000000000000000000000000000000000600052603260045260246000fd5b7f4e487b7100000000000000000000000000000000000000000000000000000000600052601160045260246000fd5b600061259c82611a62565b91507fffffffffffffffffffffffffffffffffffffffffffffffffffffffffffffffff82036125ce576125cd612562565b5b600182019050919050565b60006040820190506125ee6000830185611ad8565b6125fb6020830184611ad8565b9392505050565b7f4f776e61626c653a206e6577206f776e657220697320746865207a65726f206160008201527f6464726573730000000000000000000000000000000000000000000000000000602082015250565b600061265e602683611bf5565b915061266982612602565b604082019050919050565b6000602082019050818103600083015261268d81612651565b9050919050565b7f4f776e61626c653a2063616c6c6572206973206e6f7420746865206f776e6572600082015250565b60006126ca602083611bf5565b91506126d582612694565b602082019050919050565b600060208201905081810360008301526126f9816126bd565b9050919050565b7f455243313135353a206d696e7420746f20746865207a65726f2061646472657360008201527f7300000000000000000000000000000000000000000000000000000000000000602082015250565b600061275c602183611bf5565b915061276782612700565b604082019050919050565b6000602082019050818103600083015261278b8161274f565b9050919050565b600061279d82611a62565b91506127a883611a62565b92508282019050808211156127c0576127bf612562565b5b92915050565b7f455243313135353a2069647320616e6420616d6f756e7473206c656e6774682060008201527f6d69736d61746368000000000000000000000000000000000000000000000000602082015250565b6000612822602883611bf5565b915061282d826127c6565b604082019050919050565b6000602082019050818103600083015261285181612815565b9050919050565b7f455243313135353a207472616e7366657220746f20746865207a65726f20616460008201527f6472657373000000000000000000000000000000000000000000000000000000602082015250565b60006128b4602583611bf5565b91506128bf82612858565b604082019050919050565b600060208201905081810360008301526128e3816128a7565b9050919050565b7f455243313135353a20696e73756666696369656e742062616c616e636520666f60008201527f72207472616e7366657200000000000000000000000000000000000000000000602082015250565b6000612946602a83611bf5565b9150612951826128ea565b604082019050919050565b6000602082019050818103600083015261297581612939565b9050919050565b600060408201905081810360008301526129968185612103565b905081810360208301526129aa8184612103565b90509392505050565b7f455243313135353a2073657474696e6720617070726f76616c2073746174757360008201527f20666f722073656c660000000000000000000000000000000000000000000000602082015250565b6000612a0f602983611bf5565b9150612a1a826129b3565b604082019050919050565b60006020820190508181036000830152612a3e81612a02565b9050919050565b600081519050919050565b600082825260208201905092915050565b6000612a6c82612a45565b612a768185612a50565b9350612a86818560208601611c06565b612a8f81611c30565b840191505092915050565b600060a082019050612aaf6000830188612183565b612abc6020830187612183565b612ac96040830186611ad8565b612ad66060830185611ad8565b8181036080830152612ae88184612a61565b90509695505050505050565b600081519050612b0381611b2e565b92915050565b600060208284031215612b1f57612b1e6119fa565b5b6000612b2d84828501612af4565b91505092915050565b60008160e01c9050919050565b600060033d1115612b625760046000803e612b5f600051612b36565b90505b90565b600060443d10612bf257612b776119f0565b60043d036004823e80513d602482011167ffffffffffffffff82111715612b9f575050612bf2565b808201805167ffffffffffffffff811115612bbd5750505050612bf2565b80602083010160043d038501811115612bda575050505050612bf2565b612be982602001850186611cd0565b82955050505050505b90565b7f455243313135353a207472616e7366657220746f206e6f6e2d4552433131353560008201527f526563656976657220696d706c656d656e746572000000000000000000000000602082015250565b6000612c51603483611bf5565b9150612c5c82612bf5565b604082019050919050565b60006020820190508181036000830152612c8081612c44565b9050919050565b7f455243313135353a204552433131353552656365697665722072656a6563746560008201527f6420746f6b656e73000000000000000000000000000000000000000000000000602082015250565b6000612ce3602883611bf5565b9150612cee82612c87565b604082019050919050565b60006020820190508181036000830152612d1281612cd6565b9050919050565b600060a082019050612d2e6000830188612183565b612d3b6020830187612183565b8181036040830152612d4d8186612103565b90508181036060830152612d618185612103565b90508181036080830152612d758184612a61565b9050969550505050505056fea26469706673582212200dd1afa01d9fb7c3fc20ab6c7b518b1bbbc183ceb9e3b55b5d7995e37f62f60164736f6c6343000812003368747470733a2f2f6d61727469616e2d6d756e63686965732e696f2f6e6674732f7b69647d2e6a736f6e",
  "linkReferences": {},
  "deployedLinkReferences": {}
}